{
	"SafeRoom.sol": {
		"SafeRoom": {
			"abi": [
				{
					"inputs": [
						{
							"internalType": "address",
							"name": "_initialBal",
							"type": "address"
						}
					],
					"stateMutability": "payable",
					"type": "constructor"
				},
				{
					"inputs": [],
					"name": "initialBal",
					"outputs": [
						{
							"internalType": "uint256",
							"name": "",
							"type": "uint256"
						}
					],
					"stateMutability": "view",
					"type": "function"
				},
				{
					"inputs": [],
					"name": "owner",
					"outputs": [
						{
							"internalType": "address payable",
							"name": "",
							"type": "address"
						}
					],
					"stateMutability": "view",
					"type": "function"
				},
				{
					"inputs": [
						{
							"internalType": "address",
							"name": "_to",
							"type": "address"
						},
						{
							"internalType": "uint256",
							"name": "amount",
							"type": "uint256"
						}
					],
					"name": "transfer",
					"outputs": [],
					"stateMutability": "nonpayable",
					"type": "function"
				}
			],
			"devdoc": {
				"kind": "dev",
				"methods": {},
				"version": 1
			},
			"evm": {
				"assembly": "    /* \"SafeRoom.sol\":56:495  contract SafeRoom {... */\n  mstore(0x40, 0x80)\n    /* \"SafeRoom.sol\":152:269  constructor(address _initialBal) payable {... */\n  mload(0x40)\n  sub(codesize, bytecodeSize)\n  dup1\n  bytecodeSize\n  dup4\n  codecopy\n  dup2\n  dup2\n  add\n  0x40\n  mstore\n  dup2\n  add\n  swap1\n  tag_1\n  swap2\n  swap1\n  tag_2\n  jump\t// in\ntag_1:\n    /* \"SafeRoom.sol\":216:225  msg.value */\n  callvalue\n    /* \"SafeRoom.sol\":203:213  initialBal */\n  0x01\n    /* \"SafeRoom.sol\":203:225  initialBal = msg.value */\n  dup2\n  swap1\n  sstore\n  pop\n    /* \"SafeRoom.sol\":251:261  msg.sender */\n  caller\n    /* \"SafeRoom.sol\":235:240  owner */\n  0x00\n  dup1\n    /* \"SafeRoom.sol\":235:262  owner = payable(msg.sender) */\n  0x0100\n  exp\n  dup2\n  sload\n  dup2\n  0xffffffffffffffffffffffffffffffffffffffff\n  mul\n  not\n  and\n  swap1\n  dup4\n  0xffffffffffffffffffffffffffffffffffffffff\n  and\n  mul\n  or\n  swap1\n  sstore\n  pop\n    /* \"SafeRoom.sol\":152:269  constructor(address _initialBal) payable {... */\n  pop\n    /* \"SafeRoom.sol\":56:495  contract SafeRoom {... */\n  jump(tag_5)\n    /* \"#utility.yul\":88:205   */\ntag_7:\n    /* \"#utility.yul\":197:198   */\n  0x00\n    /* \"#utility.yul\":194:195   */\n  dup1\n    /* \"#utility.yul\":187:199   */\n  revert\n    /* \"#utility.yul\":334:460   */\ntag_9:\n    /* \"#utility.yul\":371:378   */\n  0x00\n    /* \"#utility.yul\":411:453   */\n  0xffffffffffffffffffffffffffffffffffffffff\n    /* \"#utility.yul\":404:409   */\n  dup3\n    /* \"#utility.yul\":400:454   */\n  and\n    /* \"#utility.yul\":389:454   */\n  swap1\n  pop\n    /* \"#utility.yul\":334:460   */\n  swap2\n  swap1\n  pop\n  jump\t// out\n    /* \"#utility.yul\":466:562   */\ntag_10:\n    /* \"#utility.yul\":503:510   */\n  0x00\n    /* \"#utility.yul\":532:556   */\n  tag_19\n    /* \"#utility.yul\":550:555   */\n  dup3\n    /* \"#utility.yul\":532:556   */\n  tag_9\n  jump\t// in\ntag_19:\n    /* \"#utility.yul\":521:556   */\n  swap1\n  pop\n    /* \"#utility.yul\":466:562   */\n  swap2\n  swap1\n  pop\n  jump\t// out\n    /* \"#utility.yul\":568:690   */\ntag_11:\n    /* \"#utility.yul\":641:665   */\n  tag_21\n    /* \"#utility.yul\":659:664   */\n  dup2\n    /* \"#utility.yul\":641:665   */\n  tag_10\n  jump\t// in\ntag_21:\n    /* \"#utility.yul\":634:639   */\n  dup2\n    /* \"#utility.yul\":631:666   */\n  eq\n    /* \"#utility.yul\":621:684   */\n  tag_22\n  jumpi\n    /* \"#utility.yul\":680:681   */\n  0x00\n    /* \"#utility.yul\":677:678   */\n  dup1\n    /* \"#utility.yul\":670:682   */\n  revert\n    /* \"#utility.yul\":621:684   */\ntag_22:\n    /* \"#utility.yul\":568:690   */\n  pop\n  jump\t// out\n    /* \"#utility.yul\":696:839   */\ntag_12:\n    /* \"#utility.yul\":753:758   */\n  0x00\n    /* \"#utility.yul\":784:790   */\n  dup2\n    /* \"#utility.yul\":778:791   */\n  mload\n    /* \"#utility.yul\":769:791   */\n  swap1\n  pop\n    /* \"#utility.yul\":800:833   */\n  tag_24\n    /* \"#utility.yul\":827:832   */\n  dup2\n    /* \"#utility.yul\":800:833   */\n  tag_11\n  jump\t// in\ntag_24:\n    /* \"#utility.yul\":696:839   */\n  swap3\n  swap2\n  pop\n  pop\n  jump\t// out\n    /* \"#utility.yul\":845:1196   */\ntag_2:\n    /* \"#utility.yul\":915:921   */\n  0x00\n    /* \"#utility.yul\":964:966   */\n  0x20\n    /* \"#utility.yul\":952:961   */\n  dup3\n    /* \"#utility.yul\":943:950   */\n  dup5\n    /* \"#utility.yul\":939:962   */\n  sub\n    /* \"#utility.yul\":935:967   */\n  slt\n    /* \"#utility.yul\":932:1051   */\n  iszero\n  tag_26\n  jumpi\n    /* \"#utility.yul\":970:1049   */\n  tag_27\n  tag_7\n  jump\t// in\ntag_27:\n    /* \"#utility.yul\":932:1051   */\ntag_26:\n    /* \"#utility.yul\":1090:1091   */\n  0x00\n    /* \"#utility.yul\":1115:1179   */\n  tag_28\n    /* \"#utility.yul\":1171:1178   */\n  dup5\n    /* \"#utility.yul\":1162:1168   */\n  dup3\n    /* \"#utility.yul\":1151:1160   */\n  dup6\n    /* \"#utility.yul\":1147:1169   */\n  add\n    /* \"#utility.yul\":1115:1179   */\n  tag_12\n  jump\t// in\ntag_28:\n    /* \"#utility.yul\":1105:1179   */\n  swap2\n  pop\n    /* \"#utility.yul\":1061:1189   */\n  pop\n    /* \"#utility.yul\":845:1196   */\n  swap3\n  swap2\n  pop\n  pop\n  jump\t// out\n    /* \"SafeRoom.sol\":56:495  contract SafeRoom {... */\ntag_5:\n  dataSize(sub_0)\n  dup1\n  dataOffset(sub_0)\n  0x00\n  codecopy\n  0x00\n  return\nstop\n\nsub_0: assembly {\n        /* \"SafeRoom.sol\":56:495  contract SafeRoom {... */\n      mstore(0x40, 0x80)\n      callvalue\n      dup1\n      iszero\n      tag_1\n      jumpi\n      0x00\n      dup1\n      revert\n    tag_1:\n      pop\n      jumpi(tag_2, lt(calldatasize, 0x04))\n      shr(0xe0, calldataload(0x00))\n      dup1\n      0x8da5cb5b\n      eq\n      tag_3\n      jumpi\n      dup1\n      0x9450cda5\n      eq\n      tag_4\n      jumpi\n      dup1\n      0xa9059cbb\n      eq\n      tag_5\n      jumpi\n    tag_2:\n      0x00\n      dup1\n      revert\n        /* \"SafeRoom.sol\":85:113  address payable public owner */\n    tag_3:\n      tag_6\n      tag_7\n      jump\t// in\n    tag_6:\n      mload(0x40)\n      tag_8\n      swap2\n      swap1\n      tag_9\n      jump\t// in\n    tag_8:\n      mload(0x40)\n      dup1\n      swap2\n      sub\n      swap1\n      return\n        /* \"SafeRoom.sol\":119:141  uint public initialBal */\n    tag_4:\n      tag_10\n      tag_11\n      jump\t// in\n    tag_10:\n      mload(0x40)\n      tag_12\n      swap2\n      swap1\n      tag_13\n      jump\t// in\n    tag_12:\n      mload(0x40)\n      dup1\n      swap2\n      sub\n      swap1\n      return\n        /* \"SafeRoom.sol\":284:493  function transfer (address _to, uint amount) public  {... */\n    tag_5:\n      tag_14\n      0x04\n      dup1\n      calldatasize\n      sub\n      dup2\n      add\n      swap1\n      tag_15\n      swap2\n      swap1\n      tag_16\n      jump\t// in\n    tag_15:\n      tag_17\n      jump\t// in\n    tag_14:\n      stop\n        /* \"SafeRoom.sol\":85:113  address payable public owner */\n    tag_7:\n      0x00\n      dup1\n      sload\n      swap1\n      0x0100\n      exp\n      swap1\n      div\n      0xffffffffffffffffffffffffffffffffffffffff\n      and\n      dup2\n      jump\t// out\n        /* \"SafeRoom.sol\":119:141  uint public initialBal */\n    tag_11:\n      sload(0x01)\n      dup2\n      jump\t// out\n        /* \"SafeRoom.sol\":284:493  function transfer (address _to, uint amount) public  {... */\n    tag_17:\n        /* \"SafeRoom.sol\":367:372  owner */\n      0x00\n      dup1\n      sload\n      swap1\n      0x0100\n      exp\n      swap1\n      div\n      0xffffffffffffffffffffffffffffffffffffffff\n      and\n        /* \"SafeRoom.sol\":354:372  tx.origin == owner */\n      0xffffffffffffffffffffffffffffffffffffffff\n      and\n        /* \"SafeRoom.sol\":354:363  tx.origin */\n      origin\n        /* \"SafeRoom.sol\":354:372  tx.origin == owner */\n      0xffffffffffffffffffffffffffffffffffffffff\n      and\n      eq\n        /* \"SafeRoom.sol\":347:373  assert(tx.origin == owner) */\n      tag_19\n      jumpi\n      tag_20\n      tag_21\n      jump\t// in\n    tag_20:\n    tag_19:\n        /* \"SafeRoom.sol\":384:396  bool success */\n      0x00\n        /* \"SafeRoom.sol\":409:413  this */\n      address\n        /* \"SafeRoom.sol\":401:419  address(this).call */\n      0xffffffffffffffffffffffffffffffffffffffff\n      and\n        /* \"SafeRoom.sol\":426:436  initialBal */\n      sload(0x01)\n        /* \"SafeRoom.sol\":401:441  address(this).call{value:initialBal}(\"\") */\n      mload(0x40)\n      tag_22\n      swap1\n      tag_23\n      jump\t// in\n    tag_22:\n      0x00\n      mload(0x40)\n      dup1\n      dup4\n      sub\n      dup2\n      dup6\n      dup8\n      gas\n      call\n      swap3\n      pop\n      pop\n      pop\n      returndatasize\n      dup1\n      0x00\n      dup2\n      eq\n      tag_26\n      jumpi\n      mload(0x40)\n      swap2\n      pop\n      and(add(returndatasize, 0x3f), not(0x1f))\n      dup3\n      add\n      0x40\n      mstore\n      returndatasize\n      dup3\n      mstore\n      returndatasize\n      0x00\n      0x20\n      dup5\n      add\n      returndatacopy\n      jump(tag_25)\n    tag_26:\n      0x60\n      swap2\n      pop\n    tag_25:\n      pop\n        /* \"SafeRoom.sol\":383:441  (bool success,) = address(this).call{value:initialBal}(\"\") */\n      pop\n      swap1\n      pop\n        /* \"SafeRoom.sol\":459:466  success */\n      dup1\n        /* \"SafeRoom.sol\":451:486  require(success, \"Transfer Failed\") */\n      tag_27\n      jumpi\n      mload(0x40)\n      0x08c379a000000000000000000000000000000000000000000000000000000000\n      dup2\n      mstore\n      0x04\n      add\n      tag_28\n      swap1\n      tag_29\n      jump\t// in\n    tag_28:\n      mload(0x40)\n      dup1\n      swap2\n      sub\n      swap1\n      revert\n    tag_27:\n        /* \"SafeRoom.sol\":337:493  {... */\n      pop\n        /* \"SafeRoom.sol\":284:493  function transfer (address _to, uint amount) public  {... */\n      pop\n      pop\n      jump\t// out\n        /* \"#utility.yul\":7:133   */\n    tag_30:\n        /* \"#utility.yul\":44:51   */\n      0x00\n        /* \"#utility.yul\":84:126   */\n      0xffffffffffffffffffffffffffffffffffffffff\n        /* \"#utility.yul\":77:82   */\n      dup3\n        /* \"#utility.yul\":73:127   */\n      and\n        /* \"#utility.yul\":62:127   */\n      swap1\n      pop\n        /* \"#utility.yul\":7:133   */\n      swap2\n      swap1\n      pop\n      jump\t// out\n        /* \"#utility.yul\":139:243   */\n    tag_31:\n        /* \"#utility.yul\":184:191   */\n      0x00\n        /* \"#utility.yul\":213:237   */\n      tag_52\n        /* \"#utility.yul\":231:236   */\n      dup3\n        /* \"#utility.yul\":213:237   */\n      tag_30\n      jump\t// in\n    tag_52:\n        /* \"#utility.yul\":202:237   */\n      swap1\n      pop\n        /* \"#utility.yul\":139:243   */\n      swap2\n      swap1\n      pop\n      jump\t// out\n        /* \"#utility.yul\":249:391   */\n    tag_32:\n        /* \"#utility.yul\":352:384   */\n      tag_54\n        /* \"#utility.yul\":378:383   */\n      dup2\n        /* \"#utility.yul\":352:384   */\n      tag_31\n      jump\t// in\n    tag_54:\n        /* \"#utility.yul\":347:350   */\n      dup3\n        /* \"#utility.yul\":340:385   */\n      mstore\n        /* \"#utility.yul\":249:391   */\n      pop\n      pop\n      jump\t// out\n        /* \"#utility.yul\":397:651   */\n    tag_9:\n        /* \"#utility.yul\":506:510   */\n      0x00\n        /* \"#utility.yul\":544:546   */\n      0x20\n        /* \"#utility.yul\":533:542   */\n      dup3\n        /* \"#utility.yul\":529:547   */\n      add\n        /* \"#utility.yul\":521:547   */\n      swap1\n      pop\n        /* \"#utility.yul\":557:644   */\n      tag_56\n        /* \"#utility.yul\":641:642   */\n      0x00\n        /* \"#utility.yul\":630:639   */\n      dup4\n        /* \"#utility.yul\":626:643   */\n      add\n        /* \"#utility.yul\":617:623   */\n      dup5\n        /* \"#utility.yul\":557:644   */\n      tag_32\n      jump\t// in\n    tag_56:\n        /* \"#utility.yul\":397:651   */\n      swap3\n      swap2\n      pop\n      pop\n      jump\t// out\n        /* \"#utility.yul\":657:734   */\n    tag_33:\n        /* \"#utility.yul\":694:701   */\n      0x00\n        /* \"#utility.yul\":723:728   */\n      dup2\n        /* \"#utility.yul\":712:728   */\n      swap1\n      pop\n        /* \"#utility.yul\":657:734   */\n      swap2\n      swap1\n      pop\n      jump\t// out\n        /* \"#utility.yul\":740:858   */\n    tag_34:\n        /* \"#utility.yul\":827:851   */\n      tag_59\n        /* \"#utility.yul\":845:850   */\n      dup2\n        /* \"#utility.yul\":827:851   */\n      tag_33\n      jump\t// in\n    tag_59:\n        /* \"#utility.yul\":822:825   */\n      dup3\n        /* \"#utility.yul\":815:852   */\n      mstore\n        /* \"#utility.yul\":740:858   */\n      pop\n      pop\n      jump\t// out\n        /* \"#utility.yul\":864:1086   */\n    tag_13:\n        /* \"#utility.yul\":957:961   */\n      0x00\n        /* \"#utility.yul\":995:997   */\n      0x20\n        /* \"#utility.yul\":984:993   */\n      dup3\n        /* \"#utility.yul\":980:998   */\n      add\n        /* \"#utility.yul\":972:998   */\n      swap1\n      pop\n        /* \"#utility.yul\":1008:1079   */\n      tag_61\n        /* \"#utility.yul\":1076:1077   */\n      0x00\n        /* \"#utility.yul\":1065:1074   */\n      dup4\n        /* \"#utility.yul\":1061:1078   */\n      add\n        /* \"#utility.yul\":1052:1058   */\n      dup5\n        /* \"#utility.yul\":1008:1079   */\n      tag_34\n      jump\t// in\n    tag_61:\n        /* \"#utility.yul\":864:1086   */\n      swap3\n      swap2\n      pop\n      pop\n      jump\t// out\n        /* \"#utility.yul\":1173:1290   */\n    tag_36:\n        /* \"#utility.yul\":1282:1283   */\n      0x00\n        /* \"#utility.yul\":1279:1280   */\n      dup1\n        /* \"#utility.yul\":1272:1284   */\n      revert\n        /* \"#utility.yul\":1419:1515   */\n    tag_38:\n        /* \"#utility.yul\":1456:1463   */\n      0x00\n        /* \"#utility.yul\":1485:1509   */\n      tag_66\n        /* \"#utility.yul\":1503:1508   */\n      dup3\n        /* \"#utility.yul\":1485:1509   */\n      tag_30\n      jump\t// in\n    tag_66:\n        /* \"#utility.yul\":1474:1509   */\n      swap1\n      pop\n        /* \"#utility.yul\":1419:1515   */\n      swap2\n      swap1\n      pop\n      jump\t// out\n        /* \"#utility.yul\":1521:1643   */\n    tag_39:\n        /* \"#utility.yul\":1594:1618   */\n      tag_68\n        /* \"#utility.yul\":1612:1617   */\n      dup2\n        /* \"#utility.yul\":1594:1618   */\n      tag_38\n      jump\t// in\n    tag_68:\n        /* \"#utility.yul\":1587:1592   */\n      dup2\n        /* \"#utility.yul\":1584:1619   */\n      eq\n        /* \"#utility.yul\":1574:1637   */\n      tag_69\n      jumpi\n        /* \"#utility.yul\":1633:1634   */\n      0x00\n        /* \"#utility.yul\":1630:1631   */\n      dup1\n        /* \"#utility.yul\":1623:1635   */\n      revert\n        /* \"#utility.yul\":1574:1637   */\n    tag_69:\n        /* \"#utility.yul\":1521:1643   */\n      pop\n      jump\t// out\n        /* \"#utility.yul\":1649:1788   */\n    tag_40:\n        /* \"#utility.yul\":1695:1700   */\n      0x00\n        /* \"#utility.yul\":1733:1739   */\n      dup2\n        /* \"#utility.yul\":1720:1740   */\n      calldataload\n        /* \"#utility.yul\":1711:1740   */\n      swap1\n      pop\n        /* \"#utility.yul\":1749:1782   */\n      tag_71\n        /* \"#utility.yul\":1776:1781   */\n      dup2\n        /* \"#utility.yul\":1749:1782   */\n      tag_39\n      jump\t// in\n    tag_71:\n        /* \"#utility.yul\":1649:1788   */\n      swap3\n      swap2\n      pop\n      pop\n      jump\t// out\n        /* \"#utility.yul\":1794:1916   */\n    tag_41:\n        /* \"#utility.yul\":1867:1891   */\n      tag_73\n        /* \"#utility.yul\":1885:1890   */\n      dup2\n        /* \"#utility.yul\":1867:1891   */\n      tag_33\n      jump\t// in\n    tag_73:\n        /* \"#utility.yul\":1860:1865   */\n      dup2\n        /* \"#utility.yul\":1857:1892   */\n      eq\n        /* \"#utility.yul\":1847:1910   */\n      tag_74\n      jumpi\n        /* \"#utility.yul\":1906:1907   */\n      0x00\n        /* \"#utility.yul\":1903:1904   */\n      dup1\n        /* \"#utility.yul\":1896:1908   */\n      revert\n        /* \"#utility.yul\":1847:1910   */\n    tag_74:\n        /* \"#utility.yul\":1794:1916   */\n      pop\n      jump\t// out\n        /* \"#utility.yul\":1922:2061   */\n    tag_42:\n        /* \"#utility.yul\":1968:1973   */\n      0x00\n        /* \"#utility.yul\":2006:2012   */\n      dup2\n        /* \"#utility.yul\":1993:2013   */\n      calldataload\n        /* \"#utility.yul\":1984:2013   */\n      swap1\n      pop\n        /* \"#utility.yul\":2022:2055   */\n      tag_76\n        /* \"#utility.yul\":2049:2054   */\n      dup2\n        /* \"#utility.yul\":2022:2055   */\n      tag_41\n      jump\t// in\n    tag_76:\n        /* \"#utility.yul\":1922:2061   */\n      swap3\n      swap2\n      pop\n      pop\n      jump\t// out\n        /* \"#utility.yul\":2067:2541   */\n    tag_16:\n        /* \"#utility.yul\":2135:2141   */\n      0x00\n        /* \"#utility.yul\":2143:2149   */\n      dup1\n        /* \"#utility.yul\":2192:2194   */\n      0x40\n        /* \"#utility.yul\":2180:2189   */\n      dup4\n        /* \"#utility.yul\":2171:2178   */\n      dup6\n        /* \"#utility.yul\":2167:2190   */\n      sub\n        /* \"#utility.yul\":2163:2195   */\n      slt\n        /* \"#utility.yul\":2160:2279   */\n      iszero\n      tag_78\n      jumpi\n        /* \"#utility.yul\":2198:2277   */\n      tag_79\n      tag_36\n      jump\t// in\n    tag_79:\n        /* \"#utility.yul\":2160:2279   */\n    tag_78:\n        /* \"#utility.yul\":2318:2319   */\n      0x00\n        /* \"#utility.yul\":2343:2396   */\n      tag_80\n        /* \"#utility.yul\":2388:2395   */\n      dup6\n        /* \"#utility.yul\":2379:2385   */\n      dup3\n        /* \"#utility.yul\":2368:2377   */\n      dup7\n        /* \"#utility.yul\":2364:2386   */\n      add\n        /* \"#utility.yul\":2343:2396   */\n      tag_40\n      jump\t// in\n    tag_80:\n        /* \"#utility.yul\":2333:2396   */\n      swap3\n      pop\n        /* \"#utility.yul\":2289:2406   */\n      pop\n        /* \"#utility.yul\":2445:2447   */\n      0x20\n        /* \"#utility.yul\":2471:2524   */\n      tag_81\n        /* \"#utility.yul\":2516:2523   */\n      dup6\n        /* \"#utility.yul\":2507:2513   */\n      dup3\n        /* \"#utility.yul\":2496:2505   */\n      dup7\n        /* \"#utility.yul\":2492:2514   */\n      add\n        /* \"#utility.yul\":2471:2524   */\n      tag_42\n      jump\t// in\n    tag_81:\n        /* \"#utility.yul\":2461:2524   */\n      swap2\n      pop\n        /* \"#utility.yul\":2416:2534   */\n      pop\n        /* \"#utility.yul\":2067:2541   */\n      swap3\n      pop\n      swap3\n      swap1\n      pop\n      jump\t// out\n        /* \"#utility.yul\":2547:2727   */\n    tag_21:\n        /* \"#utility.yul\":2595:2672   */\n      0x4e487b7100000000000000000000000000000000000000000000000000000000\n        /* \"#utility.yul\":2592:2593   */\n      0x00\n        /* \"#utility.yul\":2585:2673   */\n      mstore\n        /* \"#utility.yul\":2692:2696   */\n      0x01\n        /* \"#utility.yul\":2689:2690   */\n      0x04\n        /* \"#utility.yul\":2682:2697   */\n      mstore\n        /* \"#utility.yul\":2716:2720   */\n      0x24\n        /* \"#utility.yul\":2713:2714   */\n      0x00\n        /* \"#utility.yul\":2706:2721   */\n      revert\n        /* \"#utility.yul\":2733:2880   */\n    tag_43:\n        /* \"#utility.yul\":2834:2845   */\n      0x00\n        /* \"#utility.yul\":2871:2874   */\n      dup2\n        /* \"#utility.yul\":2856:2874   */\n      swap1\n      pop\n        /* \"#utility.yul\":2733:2880   */\n      swap3\n      swap2\n      pop\n      pop\n      jump\t// out\n        /* \"#utility.yul\":2886:3000   */\n    tag_44:\n      pop\n      jump\t// out\n        /* \"#utility.yul\":3006:3404   */\n    tag_45:\n        /* \"#utility.yul\":3165:3168   */\n      0x00\n        /* \"#utility.yul\":3186:3269   */\n      tag_86\n        /* \"#utility.yul\":3267:3268   */\n      0x00\n        /* \"#utility.yul\":3262:3265   */\n      dup4\n        /* \"#utility.yul\":3186:3269   */\n      tag_43\n      jump\t// in\n    tag_86:\n        /* \"#utility.yul\":3179:3269   */\n      swap2\n      pop\n        /* \"#utility.yul\":3278:3371   */\n      tag_87\n        /* \"#utility.yul\":3367:3370   */\n      dup3\n        /* \"#utility.yul\":3278:3371   */\n      tag_44\n      jump\t// in\n    tag_87:\n        /* \"#utility.yul\":3396:3397   */\n      0x00\n        /* \"#utility.yul\":3391:3394   */\n      dup3\n        /* \"#utility.yul\":3387:3398   */\n      add\n        /* \"#utility.yul\":3380:3398   */\n      swap1\n      pop\n        /* \"#utility.yul\":3006:3404   */\n      swap2\n      swap1\n      pop\n      jump\t// out\n        /* \"#utility.yul\":3410:3789   */\n    tag_23:\n        /* \"#utility.yul\":3594:3597   */\n      0x00\n        /* \"#utility.yul\":3616:3763   */\n      tag_89\n        /* \"#utility.yul\":3759:3762   */\n      dup3\n        /* \"#utility.yul\":3616:3763   */\n      tag_45\n      jump\t// in\n    tag_89:\n        /* \"#utility.yul\":3609:3763   */\n      swap2\n      pop\n        /* \"#utility.yul\":3780:3783   */\n      dup2\n        /* \"#utility.yul\":3773:3783   */\n      swap1\n      pop\n        /* \"#utility.yul\":3410:3789   */\n      swap2\n      swap1\n      pop\n      jump\t// out\n        /* \"#utility.yul\":3795:3964   */\n    tag_46:\n        /* \"#utility.yul\":3879:3890   */\n      0x00\n        /* \"#utility.yul\":3913:3919   */\n      dup3\n        /* \"#utility.yul\":3908:3911   */\n      dup3\n        /* \"#utility.yul\":3901:3920   */\n      mstore\n        /* \"#utility.yul\":3953:3957   */\n      0x20\n        /* \"#utility.yul\":3948:3951   */\n      dup3\n        /* \"#utility.yul\":3944:3958   */\n      add\n        /* \"#utility.yul\":3929:3958   */\n      swap1\n      pop\n        /* \"#utility.yul\":3795:3964   */\n      swap3\n      swap2\n      pop\n      pop\n      jump\t// out\n        /* \"#utility.yul\":3970:4135   */\n    tag_47:\n        /* \"#utility.yul\":4110:4127   */\n      0x5472616e73666572204661696c65640000000000000000000000000000000000\n        /* \"#utility.yul\":4106:4107   */\n      0x00\n        /* \"#utility.yul\":4098:4104   */\n      dup3\n        /* \"#utility.yul\":4094:4108   */\n      add\n        /* \"#utility.yul\":4087:4128   */\n      mstore\n        /* \"#utility.yul\":3970:4135   */\n      pop\n      jump\t// out\n        /* \"#utility.yul\":4141:4507   */\n    tag_48:\n        /* \"#utility.yul\":4283:4286   */\n      0x00\n        /* \"#utility.yul\":4304:4371   */\n      tag_93\n        /* \"#utility.yul\":4368:4370   */\n      0x0f\n        /* \"#utility.yul\":4363:4366   */\n      dup4\n        /* \"#utility.yul\":4304:4371   */\n      tag_46\n      jump\t// in\n    tag_93:\n        /* \"#utility.yul\":4297:4371   */\n      swap2\n      pop\n        /* \"#utility.yul\":4380:4473   */\n      tag_94\n        /* \"#utility.yul\":4469:4472   */\n      dup3\n        /* \"#utility.yul\":4380:4473   */\n      tag_47\n      jump\t// in\n    tag_94:\n        /* \"#utility.yul\":4498:4500   */\n      0x20\n        /* \"#utility.yul\":4493:4496   */\n      dup3\n        /* \"#utility.yul\":4489:4501   */\n      add\n        /* \"#utility.yul\":4482:4501   */\n      swap1\n      pop\n        /* \"#utility.yul\":4141:4507   */\n      swap2\n      swap1\n      pop\n      jump\t// out\n        /* \"#utility.yul\":4513:4932   */\n    tag_29:\n        /* \"#utility.yul\":4679:4683   */\n      0x00\n        /* \"#utility.yul\":4717:4719   */\n      0x20\n        /* \"#utility.yul\":4706:4715   */\n      dup3\n        /* \"#utility.yul\":4702:4720   */\n      add\n        /* \"#utility.yul\":4694:4720   */\n      swap1\n      pop\n        /* \"#utility.yul\":4766:4775   */\n      dup2\n        /* \"#utility.yul\":4760:4764   */\n      dup2\n        /* \"#utility.yul\":4756:4776   */\n      sub\n        /* \"#utility.yul\":4752:4753   */\n      0x00\n        /* \"#utility.yul\":4741:4750   */\n      dup4\n        /* \"#utility.yul\":4737:4754   */\n      add\n        /* \"#utility.yul\":4730:4777   */\n      mstore\n        /* \"#utility.yul\":4794:4925   */\n      tag_96\n        /* \"#utility.yul\":4920:4924   */\n      dup2\n        /* \"#utility.yul\":4794:4925   */\n      tag_48\n      jump\t// in\n    tag_96:\n        /* \"#utility.yul\":4786:4925   */\n      swap1\n      pop\n        /* \"#utility.yul\":4513:4932   */\n      swap2\n      swap1\n      pop\n      jump\t// out\n\n    auxdata: 0xa2646970667358221220f4a75e06a4a528e3e870a80eb03957f771b56b62a06cf29ec4cdd3667482d11564736f6c63430008090033\n}\n",
				"bytecode": {
					"linkReferences": {},
					"object": "608060405260405161054f38038061054f833981810160405281019061002591906100d5565b34600181905550336000806101000a81548173ffffffffffffffffffffffffffffffffffffffff021916908373ffffffffffffffffffffffffffffffffffffffff16021790555050610102565b600080fd5b600073ffffffffffffffffffffffffffffffffffffffff82169050919050565b60006100a282610077565b9050919050565b6100b281610097565b81146100bd57600080fd5b50565b6000815190506100cf816100a9565b92915050565b6000602082840312156100eb576100ea610072565b5b60006100f9848285016100c0565b91505092915050565b61043e806101116000396000f3fe608060405234801561001057600080fd5b50600436106100415760003560e01c80638da5cb5b146100465780639450cda514610064578063a9059cbb14610082575b600080fd5b61004e61009e565b60405161005b9190610218565b60405180910390f35b61006c6100c2565b604051610079919061024c565b60405180910390f35b61009c600480360381019061009791906102d6565b6100c8565b005b60008054906101000a900473ffffffffffffffffffffffffffffffffffffffff1681565b60015481565b60008054906101000a900473ffffffffffffffffffffffffffffffffffffffff1673ffffffffffffffffffffffffffffffffffffffff163273ffffffffffffffffffffffffffffffffffffffff161461012457610123610316565b5b60003073ffffffffffffffffffffffffffffffffffffffff1660015460405161014c90610376565b60006040518083038185875af1925050503d8060008114610189576040519150601f19603f3d011682016040523d82523d6000602084013e61018e565b606091505b50509050806101d2576040517f08c379a00000000000000000000000000000000000000000000000000000000081526004016101c9906103e8565b60405180910390fd5b505050565b600073ffffffffffffffffffffffffffffffffffffffff82169050919050565b6000610202826101d7565b9050919050565b610212816101f7565b82525050565b600060208201905061022d6000830184610209565b92915050565b6000819050919050565b61024681610233565b82525050565b6000602082019050610261600083018461023d565b92915050565b600080fd5b6000610277826101d7565b9050919050565b6102878161026c565b811461029257600080fd5b50565b6000813590506102a48161027e565b92915050565b6102b381610233565b81146102be57600080fd5b50565b6000813590506102d0816102aa565b92915050565b600080604083850312156102ed576102ec610267565b5b60006102fb85828601610295565b925050602061030c858286016102c1565b9150509250929050565b7f4e487b7100000000000000000000000000000000000000000000000000000000600052600160045260246000fd5b600081905092915050565b50565b6000610360600083610345565b915061036b82610350565b600082019050919050565b600061038182610353565b9150819050919050565b600082825260208201905092915050565b7f5472616e73666572204661696c65640000000000000000000000000000000000600082015250565b60006103d2600f8361038b565b91506103dd8261039c565b602082019050919050565b60006020820190508181036000830152610401816103c5565b905091905056fea2646970667358221220f4a75e06a4a528e3e870a80eb03957f771b56b62a06cf29ec4cdd3667482d11564736f6c63430008090033",
					"opcodes": "PUSH1 0x80 PUSH1 0x40 MSTORE PUSH1 0x40 MLOAD PUSH2 0x54F CODESIZE SUB DUP1 PUSH2 0x54F DUP4 CODECOPY DUP2 DUP2 ADD PUSH1 0x40 MSTORE DUP2 ADD SWAP1 PUSH2 0x25 SWAP2 SWAP1 PUSH2 0xD5 JUMP JUMPDEST CALLVALUE PUSH1 0x1 DUP2 SWAP1 SSTORE POP CALLER PUSH1 0x0 DUP1 PUSH2 0x100 EXP DUP2 SLOAD DUP2 PUSH20 0xFFFFFFFFFFFFFFFFFFFFFFFFFFFFFFFFFFFFFFFF MUL NOT AND SWAP1 DUP4 PUSH20 0xFFFFFFFFFFFFFFFFFFFFFFFFFFFFFFFFFFFFFFFF AND MUL OR SWAP1 SSTORE POP POP PUSH2 0x102 JUMP JUMPDEST PUSH1 0x0 DUP1 REVERT JUMPDEST PUSH1 0x0 PUSH20 0xFFFFFFFFFFFFFFFFFFFFFFFFFFFFFFFFFFFFFFFF DUP3 AND SWAP1 POP SWAP2 SWAP1 POP JUMP JUMPDEST PUSH1 0x0 PUSH2 0xA2 DUP3 PUSH2 0x77 JUMP JUMPDEST SWAP1 POP SWAP2 SWAP1 POP JUMP JUMPDEST PUSH2 0xB2 DUP2 PUSH2 0x97 JUMP JUMPDEST DUP2 EQ PUSH2 0xBD JUMPI PUSH1 0x0 DUP1 REVERT JUMPDEST POP JUMP JUMPDEST PUSH1 0x0 DUP2 MLOAD SWAP1 POP PUSH2 0xCF DUP2 PUSH2 0xA9 JUMP JUMPDEST SWAP3 SWAP2 POP POP JUMP JUMPDEST PUSH1 0x0 PUSH1 0x20 DUP3 DUP5 SUB SLT ISZERO PUSH2 0xEB JUMPI PUSH2 0xEA PUSH2 0x72 JUMP JUMPDEST JUMPDEST PUSH1 0x0 PUSH2 0xF9 DUP5 DUP3 DUP6 ADD PUSH2 0xC0 JUMP JUMPDEST SWAP2 POP POP SWAP3 SWAP2 POP POP JUMP JUMPDEST PUSH2 0x43E DUP1 PUSH2 0x111 PUSH1 0x0 CODECOPY PUSH1 0x0 RETURN INVALID PUSH1 0x80 PUSH1 0x40 MSTORE CALLVALUE DUP1 ISZERO PUSH2 0x10 JUMPI PUSH1 0x0 DUP1 REVERT JUMPDEST POP PUSH1 0x4 CALLDATASIZE LT PUSH2 0x41 JUMPI PUSH1 0x0 CALLDATALOAD PUSH1 0xE0 SHR DUP1 PUSH4 0x8DA5CB5B EQ PUSH2 0x46 JUMPI DUP1 PUSH4 0x9450CDA5 EQ PUSH2 0x64 JUMPI DUP1 PUSH4 0xA9059CBB EQ PUSH2 0x82 JUMPI JUMPDEST PUSH1 0x0 DUP1 REVERT JUMPDEST PUSH2 0x4E PUSH2 0x9E JUMP JUMPDEST PUSH1 0x40 MLOAD PUSH2 0x5B SWAP2 SWAP1 PUSH2 0x218 JUMP JUMPDEST PUSH1 0x40 MLOAD DUP1 SWAP2 SUB SWAP1 RETURN JUMPDEST PUSH2 0x6C PUSH2 0xC2 JUMP JUMPDEST PUSH1 0x40 MLOAD PUSH2 0x79 SWAP2 SWAP1 PUSH2 0x24C JUMP JUMPDEST PUSH1 0x40 MLOAD DUP1 SWAP2 SUB SWAP1 RETURN JUMPDEST PUSH2 0x9C PUSH1 0x4 DUP1 CALLDATASIZE SUB DUP2 ADD SWAP1 PUSH2 0x97 SWAP2 SWAP1 PUSH2 0x2D6 JUMP JUMPDEST PUSH2 0xC8 JUMP JUMPDEST STOP JUMPDEST PUSH1 0x0 DUP1 SLOAD SWAP1 PUSH2 0x100 EXP SWAP1 DIV PUSH20 0xFFFFFFFFFFFFFFFFFFFFFFFFFFFFFFFFFFFFFFFF AND DUP2 JUMP JUMPDEST PUSH1 0x1 SLOAD DUP2 JUMP JUMPDEST PUSH1 0x0 DUP1 SLOAD SWAP1 PUSH2 0x100 EXP SWAP1 DIV PUSH20 0xFFFFFFFFFFFFFFFFFFFFFFFFFFFFFFFFFFFFFFFF AND PUSH20 0xFFFFFFFFFFFFFFFFFFFFFFFFFFFFFFFFFFFFFFFF AND ORIGIN PUSH20 0xFFFFFFFFFFFFFFFFFFFFFFFFFFFFFFFFFFFFFFFF AND EQ PUSH2 0x124 JUMPI PUSH2 0x123 PUSH2 0x316 JUMP JUMPDEST JUMPDEST PUSH1 0x0 ADDRESS PUSH20 0xFFFFFFFFFFFFFFFFFFFFFFFFFFFFFFFFFFFFFFFF AND PUSH1 0x1 SLOAD PUSH1 0x40 MLOAD PUSH2 0x14C SWAP1 PUSH2 0x376 JUMP JUMPDEST PUSH1 0x0 PUSH1 0x40 MLOAD DUP1 DUP4 SUB DUP2 DUP6 DUP8 GAS CALL SWAP3 POP POP POP RETURNDATASIZE DUP1 PUSH1 0x0 DUP2 EQ PUSH2 0x189 JUMPI PUSH1 0x40 MLOAD SWAP2 POP PUSH1 0x1F NOT PUSH1 0x3F RETURNDATASIZE ADD AND DUP3 ADD PUSH1 0x40 MSTORE RETURNDATASIZE DUP3 MSTORE RETURNDATASIZE PUSH1 0x0 PUSH1 0x20 DUP5 ADD RETURNDATACOPY PUSH2 0x18E JUMP JUMPDEST PUSH1 0x60 SWAP2 POP JUMPDEST POP POP SWAP1 POP DUP1 PUSH2 0x1D2 JUMPI PUSH1 0x40 MLOAD PUSH32 0x8C379A000000000000000000000000000000000000000000000000000000000 DUP2 MSTORE PUSH1 0x4 ADD PUSH2 0x1C9 SWAP1 PUSH2 0x3E8 JUMP JUMPDEST PUSH1 0x40 MLOAD DUP1 SWAP2 SUB SWAP1 REVERT JUMPDEST POP POP POP JUMP JUMPDEST PUSH1 0x0 PUSH20 0xFFFFFFFFFFFFFFFFFFFFFFFFFFFFFFFFFFFFFFFF DUP3 AND SWAP1 POP SWAP2 SWAP1 POP JUMP JUMPDEST PUSH1 0x0 PUSH2 0x202 DUP3 PUSH2 0x1D7 JUMP JUMPDEST SWAP1 POP SWAP2 SWAP1 POP JUMP JUMPDEST PUSH2 0x212 DUP2 PUSH2 0x1F7 JUMP JUMPDEST DUP3 MSTORE POP POP JUMP JUMPDEST PUSH1 0x0 PUSH1 0x20 DUP3 ADD SWAP1 POP PUSH2 0x22D PUSH1 0x0 DUP4 ADD DUP5 PUSH2 0x209 JUMP JUMPDEST SWAP3 SWAP2 POP POP JUMP JUMPDEST PUSH1 0x0 DUP2 SWAP1 POP SWAP2 SWAP1 POP JUMP JUMPDEST PUSH2 0x246 DUP2 PUSH2 0x233 JUMP JUMPDEST DUP3 MSTORE POP POP JUMP JUMPDEST PUSH1 0x0 PUSH1 0x20 DUP3 ADD SWAP1 POP PUSH2 0x261 PUSH1 0x0 DUP4 ADD DUP5 PUSH2 0x23D JUMP JUMPDEST SWAP3 SWAP2 POP POP JUMP JUMPDEST PUSH1 0x0 DUP1 REVERT JUMPDEST PUSH1 0x0 PUSH2 0x277 DUP3 PUSH2 0x1D7 JUMP JUMPDEST SWAP1 POP SWAP2 SWAP1 POP JUMP JUMPDEST PUSH2 0x287 DUP2 PUSH2 0x26C JUMP JUMPDEST DUP2 EQ PUSH2 0x292 JUMPI PUSH1 0x0 DUP1 REVERT JUMPDEST POP JUMP JUMPDEST PUSH1 0x0 DUP2 CALLDATALOAD SWAP1 POP PUSH2 0x2A4 DUP2 PUSH2 0x27E JUMP JUMPDEST SWAP3 SWAP2 POP POP JUMP JUMPDEST PUSH2 0x2B3 DUP2 PUSH2 0x233 JUMP JUMPDEST DUP2 EQ PUSH2 0x2BE JUMPI PUSH1 0x0 DUP1 REVERT JUMPDEST POP JUMP JUMPDEST PUSH1 0x0 DUP2 CALLDATALOAD SWAP1 POP PUSH2 0x2D0 DUP2 PUSH2 0x2AA JUMP JUMPDEST SWAP3 SWAP2 POP POP JUMP JUMPDEST PUSH1 0x0 DUP1 PUSH1 0x40 DUP4 DUP6 SUB SLT ISZERO PUSH2 0x2ED JUMPI PUSH2 0x2EC PUSH2 0x267 JUMP JUMPDEST JUMPDEST PUSH1 0x0 PUSH2 0x2FB DUP6 DUP3 DUP7 ADD PUSH2 0x295 JUMP JUMPDEST SWAP3 POP POP PUSH1 0x20 PUSH2 0x30C DUP6 DUP3 DUP7 ADD PUSH2 0x2C1 JUMP JUMPDEST SWAP2 POP POP SWAP3 POP SWAP3 SWAP1 POP JUMP JUMPDEST PUSH32 0x4E487B7100000000000000000000000000000000000000000000000000000000 PUSH1 0x0 MSTORE PUSH1 0x1 PUSH1 0x4 MSTORE PUSH1 0x24 PUSH1 0x0 REVERT JUMPDEST PUSH1 0x0 DUP2 SWAP1 POP SWAP3 SWAP2 POP POP JUMP JUMPDEST POP JUMP JUMPDEST PUSH1 0x0 PUSH2 0x360 PUSH1 0x0 DUP4 PUSH2 0x345 JUMP JUMPDEST SWAP2 POP PUSH2 0x36B DUP3 PUSH2 0x350 JUMP JUMPDEST PUSH1 0x0 DUP3 ADD SWAP1 POP SWAP2 SWAP1 POP JUMP JUMPDEST PUSH1 0x0 PUSH2 0x381 DUP3 PUSH2 0x353 JUMP JUMPDEST SWAP2 POP DUP2 SWAP1 POP SWAP2 SWAP1 POP JUMP JUMPDEST PUSH1 0x0 DUP3 DUP3 MSTORE PUSH1 0x20 DUP3 ADD SWAP1 POP SWAP3 SWAP2 POP POP JUMP JUMPDEST PUSH32 0x5472616E73666572204661696C65640000000000000000000000000000000000 PUSH1 0x0 DUP3 ADD MSTORE POP JUMP JUMPDEST PUSH1 0x0 PUSH2 0x3D2 PUSH1 0xF DUP4 PUSH2 0x38B JUMP JUMPDEST SWAP2 POP PUSH2 0x3DD DUP3 PUSH2 0x39C JUMP JUMPDEST PUSH1 0x20 DUP3 ADD SWAP1 POP SWAP2 SWAP1 POP JUMP JUMPDEST PUSH1 0x0 PUSH1 0x20 DUP3 ADD SWAP1 POP DUP2 DUP2 SUB PUSH1 0x0 DUP4 ADD MSTORE PUSH2 0x401 DUP2 PUSH2 0x3C5 JUMP JUMPDEST SWAP1 POP SWAP2 SWAP1 POP JUMP INVALID LOG2 PUSH5 0x6970667358 0x22 SLT KECCAK256 DELEGATECALL 0xA7 0x5E MOD LOG4 0xA5 0x28 0xE3 0xE8 PUSH17 0xA80EB03957F771B56B62A06CF29EC4CDD3 PUSH7 0x7482D11564736F PUSH13 0x63430008090033000000000000 "
				},
				"gasEstimates": {
					"creation": {
						"codeDepositCost": "217200",
						"executionCost": "infinite",
						"totalCost": "infinite"
					},
					"external": {
						"initialBal()": "2429",
						"owner()": "2489",
						"transfer(address,uint256)": "infinite"
					}
				},
				"methodIdentifiers": {
					"initialBal()": "9450cda5",
					"owner()": "8da5cb5b",
					"transfer(address,uint256)": "a9059cbb"
				}
			},
			"storageLayout": {
				"storage": [
					{
						"astId": 3,
						"contract": "SafeRoom.sol:SafeRoom",
						"label": "owner",
						"offset": 0,
						"slot": "0",
						"type": "t_address_payable"
					},
					{
						"astId": 5,
						"contract": "SafeRoom.sol:SafeRoom",
						"label": "initialBal",
						"offset": 0,
						"slot": "1",
						"type": "t_uint256"
					}
				],
				"types": {
					"t_address_payable": {
						"encoding": "inplace",
						"label": "address payable",
						"numberOfBytes": "20"
					},
					"t_uint256": {
						"encoding": "inplace",
						"label": "uint256",
						"numberOfBytes": "32"
					}
				}
			},
			"userdoc": {
				"kind": "user",
				"methods": {},
				"version": 1
			}
		}
	}
}